{
  "contractName": "ERC20Holdable",
  "abi": [
    {
      "inputs": [
        {
          "internalType": "uint256",
          "name": "_supply",
          "type": "uint256"
        }
      ],
      "stateMutability": "nonpayable",
      "type": "constructor"
    },
    {
      "anonymous": false,
      "inputs": [
        {
          "indexed": true,
          "internalType": "address",
          "name": "owner",
          "type": "address"
        },
        {
          "indexed": true,
          "internalType": "address",
          "name": "spender",
          "type": "address"
        },
        {
          "indexed": false,
          "internalType": "uint256",
          "name": "value",
          "type": "uint256"
        }
      ],
      "name": "Approval",
      "type": "event"
    },
    {
      "anonymous": false,
      "inputs": [
        {
          "indexed": true,
          "internalType": "address",
          "name": "from",
          "type": "address"
        },
        {
          "indexed": true,
          "internalType": "address",
          "name": "to",
          "type": "address"
        },
        {
          "indexed": false,
          "internalType": "uint256",
          "name": "value",
          "type": "uint256"
        }
      ],
      "name": "Transfer",
      "type": "event"
    },
    {
      "inputs": [
        {
          "internalType": "address",
          "name": "owner",
          "type": "address"
        },
        {
          "internalType": "address",
          "name": "spender",
          "type": "address"
        }
      ],
      "name": "allowance",
      "outputs": [
        {
          "internalType": "uint256",
          "name": "",
          "type": "uint256"
        }
      ],
      "stateMutability": "view",
      "type": "function"
    },
    {
      "inputs": [
        {
          "internalType": "address",
          "name": "spender",
          "type": "address"
        },
        {
          "internalType": "uint256",
          "name": "amount",
          "type": "uint256"
        }
      ],
      "name": "approve",
      "outputs": [
        {
          "internalType": "bool",
          "name": "",
          "type": "bool"
        }
      ],
      "stateMutability": "nonpayable",
      "type": "function"
    },
    {
      "inputs": [
        {
          "internalType": "address",
          "name": "account",
          "type": "address"
        }
      ],
      "name": "balanceOf",
      "outputs": [
        {
          "internalType": "uint256",
          "name": "",
          "type": "uint256"
        }
      ],
      "stateMutability": "view",
      "type": "function"
    },
    {
      "inputs": [],
      "name": "decimals",
      "outputs": [
        {
          "internalType": "uint8",
          "name": "",
          "type": "uint8"
        }
      ],
      "stateMutability": "view",
      "type": "function"
    },
    {
      "inputs": [
        {
          "internalType": "address",
          "name": "spender",
          "type": "address"
        },
        {
          "internalType": "uint256",
          "name": "subtractedValue",
          "type": "uint256"
        }
      ],
      "name": "decreaseAllowance",
      "outputs": [
        {
          "internalType": "bool",
          "name": "",
          "type": "bool"
        }
      ],
      "stateMutability": "nonpayable",
      "type": "function"
    },
    {
      "inputs": [
        {
          "internalType": "uint256",
          "name": "",
          "type": "uint256"
        }
      ],
      "name": "holdIds",
      "outputs": [
        {
          "internalType": "uint256",
          "name": "",
          "type": "uint256"
        }
      ],
      "stateMutability": "view",
      "type": "function"
    },
    {
      "inputs": [
        {
          "internalType": "address",
          "name": "spender",
          "type": "address"
        },
        {
          "internalType": "uint256",
          "name": "addedValue",
          "type": "uint256"
        }
      ],
      "name": "increaseAllowance",
      "outputs": [
        {
          "internalType": "bool",
          "name": "",
          "type": "bool"
        }
      ],
      "stateMutability": "nonpayable",
      "type": "function"
    },
    {
      "inputs": [],
      "name": "name",
      "outputs": [
        {
          "internalType": "string",
          "name": "",
          "type": "string"
        }
      ],
      "stateMutability": "view",
      "type": "function"
    },
    {
      "inputs": [],
      "name": "symbol",
      "outputs": [
        {
          "internalType": "string",
          "name": "",
          "type": "string"
        }
      ],
      "stateMutability": "view",
      "type": "function"
    },
    {
      "inputs": [],
      "name": "totalSupply",
      "outputs": [
        {
          "internalType": "uint256",
          "name": "",
          "type": "uint256"
        }
      ],
      "stateMutability": "view",
      "type": "function"
    },
    {
      "inputs": [
        {
          "internalType": "address",
          "name": "recipient",
          "type": "address"
        },
        {
          "internalType": "uint256",
          "name": "amount",
          "type": "uint256"
        }
      ],
      "name": "transfer",
      "outputs": [
        {
          "internalType": "bool",
          "name": "",
          "type": "bool"
        }
      ],
      "stateMutability": "nonpayable",
      "type": "function"
    },
    {
      "inputs": [
        {
          "internalType": "address",
          "name": "sender",
          "type": "address"
        },
        {
          "internalType": "address",
          "name": "recipient",
          "type": "address"
        },
        {
          "internalType": "uint256",
          "name": "amount",
          "type": "uint256"
        }
      ],
      "name": "transferFrom",
      "outputs": [
        {
          "internalType": "bool",
          "name": "",
          "type": "bool"
        }
      ],
      "stateMutability": "nonpayable",
      "type": "function"
    },
    {
      "inputs": [
        {
          "internalType": "uint256",
          "name": "holdId",
          "type": "uint256"
        },
        {
          "internalType": "address",
          "name": "recipient",
          "type": "address"
        },
        {
          "internalType": "uint256",
          "name": "amount",
          "type": "uint256"
        }
      ],
      "name": "hold",
      "outputs": [
        {
          "internalType": "bool",
          "name": "",
          "type": "bool"
        }
      ],
      "stateMutability": "nonpayable",
      "type": "function"
    },
    {
      "inputs": [
        {
          "internalType": "uint256",
          "name": "holdId",
          "type": "uint256"
        },
        {
          "internalType": "address",
          "name": "sender",
          "type": "address"
        },
        {
          "internalType": "address",
          "name": "recipient",
          "type": "address"
        },
        {
          "internalType": "uint256",
          "name": "amount",
          "type": "uint256"
        }
      ],
      "name": "holdFrom",
      "outputs": [
        {
          "internalType": "bool",
          "name": "",
          "type": "bool"
        }
      ],
      "stateMutability": "nonpayable",
      "type": "function"
    },
    {
      "inputs": [
        {
          "internalType": "uint256",
          "name": "holdId",
          "type": "uint256"
        }
      ],
      "name": "executeHold",
      "outputs": [
        {
          "internalType": "bool",
          "name": "",
          "type": "bool"
        }
      ],
      "stateMutability": "nonpayable",
      "type": "function"
    },
    {
      "inputs": [
        {
          "internalType": "uint256",
          "name": "holdId",
          "type": "uint256"
        }
      ],
      "name": "removeHold",
      "outputs": [
        {
          "internalType": "bool",
          "name": "",
          "type": "bool"
        }
      ],
      "stateMutability": "nonpayable",
      "type": "function"
    }
  ],
  "bytecode": "0x60806040523480156200001157600080fd5b50604051620024eb380380620024eb83398181016040528101906200003791906200036d565b6040518060400160405280600d81526020017f4552433230486f6c6461626c65000000000000000000000000000000000000008152506040518060400160405280600681526020017f45524332304800000000000000000000000000000000000000000000000000008152508160039080519060200190620000bb929190620002a6565b508060049080519060200190620000d4929190620002a6565b5050506200011333620000ec6200011a60201b60201c565b600a620000fa9190620004f4565b8362000107919062000631565b6200012360201b60201c565b5062000764565b60006012905090565b600073ffffffffffffffffffffffffffffffffffffffff168273ffffffffffffffffffffffffffffffffffffffff16141562000196576040517f08c379a00000000000000000000000000000000000000000000000000000000081526004016200018d90620003ec565b60405180910390fd5b620001aa600083836200029c60201b60201c565b8060026000828254620001be91906200043c565b92505081905550806000808473ffffffffffffffffffffffffffffffffffffffff1673ffffffffffffffffffffffffffffffffffffffff16815260200190815260200160002060008282546200021591906200043c565b925050819055508173ffffffffffffffffffffffffffffffffffffffff16600073ffffffffffffffffffffffffffffffffffffffff167fddf252ad1be2c89b69c2b068fc378daa952ba7f163c4a11628f55a4df523b3ef836040516200027c91906200040e565b60405180910390a36200029860008383620002a160201b60201c565b5050565b505050565b505050565b828054620002b490620006a9565b90600052602060002090601f016020900481019282620002d8576000855562000324565b82601f10620002f357805160ff191683800117855562000324565b8280016001018555821562000324579182015b828111156200032357825182559160200191906001019062000306565b5b50905062000333919062000337565b5090565b5b808211156200035257600081600090555060010162000338565b5090565b60008151905062000367816200074a565b92915050565b6000602082840312156200038057600080fd5b6000620003908482850162000356565b91505092915050565b6000620003a8601f836200042b565b91507f45524332303a206d696e7420746f20746865207a65726f2061646472657373006000830152602082019050919050565b620003e68162000692565b82525050565b60006020820190508181036000830152620004078162000399565b9050919050565b6000602082019050620004256000830184620003db565b92915050565b600082825260208201905092915050565b6000620004498262000692565b9150620004568362000692565b9250827fffffffffffffffffffffffffffffffffffffffffffffffffffffffffffffffff038211156200048e576200048d620006df565b5b828201905092915050565b6000808291508390505b6001851115620004eb57808604811115620004c357620004c2620006df565b5b6001851615620004d35780820291505b8081029050620004e3856200073d565b9450620004a3565b94509492505050565b6000620005018262000692565b91506200050e836200069c565b92506200053d7fffffffffffffffffffffffffffffffffffffffffffffffffffffffffffffffff848462000545565b905092915050565b6000826200055757600190506200062a565b816200056757600090506200062a565b81600181146200058057600281146200058b57620005c1565b60019150506200062a565b60ff841115620005a0576200059f620006df565b5b8360020a915084821115620005ba57620005b9620006df565b5b506200062a565b5060208310610133831016604e8410600b8410161715620005fb5782820a905083811115620005f557620005f4620006df565b5b6200062a565b6200060a848484600162000499565b92509050818404811115620006245762000623620006df565b5b81810290505b9392505050565b60006200063e8262000692565b91506200064b8362000692565b9250817fffffffffffffffffffffffffffffffffffffffffffffffffffffffffffffffff0483118215151615620006875762000686620006df565b5b828202905092915050565b6000819050919050565b600060ff82169050919050565b60006002820490506001821680620006c257607f821691505b60208210811415620006d957620006d86200070e565b5b50919050565b7f4e487b7100000000000000000000000000000000000000000000000000000000600052601160045260246000fd5b7f4e487b7100000000000000000000000000000000000000000000000000000000600052602260045260246000fd5b60008160011c9050919050565b620007558162000692565b81146200076157600080fd5b50565b611d7780620007746000396000f3fe608060405234801561001057600080fd5b50600436106101005760003560e01c80633950935111610097578063a457c2d711610066578063a457c2d7146102fd578063a9059cbb1461032d578063dd62ed3e1461035d578063eb119c971461038d57610100565b8063395093511461024f5780636e3ebe6b1461027f57806370a08231146102af57806395d89b41146102df57610100565b806318160ddd116100d357806318160ddd146101b3578063226aa68a146101d157806323b872dd14610201578063313ce5671461023157610100565b806306fdde031461010557806308e5382614610123578063095ea7b31461015357806312c3836414610183575b600080fd5b61010d6103bd565b60405161011a91906119cc565b60405180910390f35b61013d60048036038101906101389190611526565b61044f565b60405161014a91906119b1565b60405180910390f35b61016d600480360381019061016891906114ea565b610573565b60405161017a91906119b1565b60405180910390f35b61019d60048036038101906101989190611526565b610591565b6040516101aa91906119b1565b60405180910390f35b6101bb6106b5565b6040516101c89190611b0e565b60405180910390f35b6101eb60048036038101906101e691906115b2565b6106bf565b6040516101f891906119b1565b60405180910390f35b61021b6004803603810190610216919061149b565b6106df565b60405161022891906119b1565b60405180910390f35b6102396107d7565b6040516102469190611b29565b60405180910390f35b610269600480360381019061026491906114ea565b6107e0565b60405161027691906119b1565b60405180910390f35b6102996004803603810190610294919061154f565b61088c565b6040516102a691906119b1565b60405180910390f35b6102c960048036038101906102c49190611436565b610985565b6040516102d69190611b0e565b60405180910390f35b6102e76109cd565b6040516102f491906119cc565b60405180910390f35b610317600480360381019061031291906114ea565b610a5f565b60405161032491906119b1565b60405180910390f35b610347600480360381019061034291906114ea565b610b4a565b60405161035491906119b1565b60405180910390f35b6103776004803603810190610372919061145f565b610b68565b6040516103849190611b0e565b60405180910390f35b6103a760048036038101906103a29190611526565b610bef565b6040516103b49190611b0e565b60405180910390f35b6060600380546103cc90611c72565b80601f01602080910402602001604051908101604052809291908181526020018280546103f890611c72565b80156104455780601f1061041a57610100808354040283529160200191610445565b820191906000526020600020905b81548152906001019060200180831161042857829003601f168201915b5050505050905090565b60008060076000848152602001908152602001600020905060008160020154116104ae576040517f08c379a00000000000000000000000000000000000000000000000000000000081526004016104a590611ace565b60405180910390fd5b6104e260008260000160009054906101000a900473ffffffffffffffffffffffffffffffffffffffff168360020154610c13565b8060020154600860008360000160009054906101000a900473ffffffffffffffffffffffffffffffffffffffff1673ffffffffffffffffffffffffffffffffffffffff1673ffffffffffffffffffffffffffffffffffffffff16815260200190815260200160002060008282546105599190611bb6565b9250508190555061056983610e94565b6001915050919050565b6000610587610580610fbd565b8484610fc5565b6001905092915050565b60008060076000848152602001908152602001600020905060008160020154116105f0576040517f08c379a00000000000000000000000000000000000000000000000000000000081526004016105e790611ace565b60405180910390fd5b61062460008260010160009054906101000a900473ffffffffffffffffffffffffffffffffffffffff168360020154610c13565b8060020154600860008360000160009054906101000a900473ffffffffffffffffffffffffffffffffffffffff1673ffffffffffffffffffffffffffffffffffffffff1673ffffffffffffffffffffffffffffffffffffffff168152602001908152602001600020600082825461069b9190611bb6565b925050819055506106ab83610e94565b6001915050919050565b6000600254905090565b60006106d46106cc610fbd565b848487611190565b600190509392505050565b60006106ec848484610c13565b6000600160008673ffffffffffffffffffffffffffffffffffffffff1673ffffffffffffffffffffffffffffffffffffffff1681526020019081526020016000206000610737610fbd565b73ffffffffffffffffffffffffffffffffffffffff1673ffffffffffffffffffffffffffffffffffffffff168152602001908152602001600020549050828110156107b7576040517f08c379a00000000000000000000000000000000000000000000000000000000081526004016107ae90611a4e565b60405180910390fd5b6107cb856107c3610fbd565b858403610fc5565b60019150509392505050565b60006012905090565b60006108826107ed610fbd565b8484600160006107fb610fbd565b73ffffffffffffffffffffffffffffffffffffffff1673ffffffffffffffffffffffffffffffffffffffff16815260200190815260200160002060008873ffffffffffffffffffffffffffffffffffffffff1673ffffffffffffffffffffffffffffffffffffffff1681526020019081526020016000205461087d9190611b60565b610fc5565b6001905092915050565b600080600560008673ffffffffffffffffffffffffffffffffffffffff1673ffffffffffffffffffffffffffffffffffffffff16815260200190815260200160002060006108d8610fbd565b73ffffffffffffffffffffffffffffffffffffffff1673ffffffffffffffffffffffffffffffffffffffff16815260200190815260200160002054905082811015610958576040517f08c379a000000000000000000000000000000000000000000000000000000000815260040161094f90611a4e565b60405180910390fd5b61096c85610964610fbd565b858403610fc5565b61097885858589611190565b6001915050949350505050565b60008060008373ffffffffffffffffffffffffffffffffffffffff1673ffffffffffffffffffffffffffffffffffffffff168152602001908152602001600020549050919050565b6060600480546109dc90611c72565b80601f0160208091040260200160405190810160405280929190818152602001828054610a0890611c72565b8015610a555780601f10610a2a57610100808354040283529160200191610a55565b820191906000526020600020905b815481529060010190602001808311610a3857829003601f168201915b5050505050905090565b60008060016000610a6e610fbd565b73ffffffffffffffffffffffffffffffffffffffff1673ffffffffffffffffffffffffffffffffffffffff16815260200190815260200160002060008573ffffffffffffffffffffffffffffffffffffffff1673ffffffffffffffffffffffffffffffffffffffff16815260200190815260200160002054905082811015610b2b576040517f08c379a0000000000000000000000000000000000000000000000000000000008152600401610b2290611aee565b60405180910390fd5b610b3f610b36610fbd565b85858403610fc5565b600191505092915050565b6000610b5e610b57610fbd565b8484610c13565b6001905092915050565b6000600160008473ffffffffffffffffffffffffffffffffffffffff1673ffffffffffffffffffffffffffffffffffffffff16815260200190815260200160002060008373ffffffffffffffffffffffffffffffffffffffff1673ffffffffffffffffffffffffffffffffffffffff16815260200190815260200160002054905092915050565b60098181548110610bff57600080fd5b906000526020600020016000915090505481565b600073ffffffffffffffffffffffffffffffffffffffff168373ffffffffffffffffffffffffffffffffffffffff161415610c83576040517f08c379a0000000000000000000000000000000000000000000000000000000008152600401610c7a90611a8e565b60405180910390fd5b600073ffffffffffffffffffffffffffffffffffffffff168273ffffffffffffffffffffffffffffffffffffffff161415610cf3576040517f08c379a0000000000000000000000000000000000000000000000000000000008152600401610cea906119ee565b60405180910390fd5b610cfe838383611402565b60008060008573ffffffffffffffffffffffffffffffffffffffff1673ffffffffffffffffffffffffffffffffffffffff16815260200190815260200160002054905081811015610d84576040517f08c379a0000000000000000000000000000000000000000000000000000000008152600401610d7b90611a2e565b60405180910390fd5b8181036000808673ffffffffffffffffffffffffffffffffffffffff1673ffffffffffffffffffffffffffffffffffffffff16815260200190815260200160002081905550816000808573ffffffffffffffffffffffffffffffffffffffff1673ffffffffffffffffffffffffffffffffffffffff1681526020019081526020016000206000828254610e179190611b60565b925050819055508273ffffffffffffffffffffffffffffffffffffffff168473ffffffffffffffffffffffffffffffffffffffff167fddf252ad1be2c89b69c2b068fc378daa952ba7f163c4a11628f55a4df523b3ef84604051610e7b9190611b0e565b60405180910390a3610e8e848484611407565b50505050565b60076000828152602001908152602001600020600080820160006101000a81549073ffffffffffffffffffffffffffffffffffffffff02191690556001820160006101000a81549073ffffffffffffffffffffffffffffffffffffffff02191690556002820160009055505060005b600980549050811015610fb9578160098281548110610f4b577f4e487b7100000000000000000000000000000000000000000000000000000000600052603260045260246000fd5b90600052602060002001541415610fa55760098181548110610f96577f4e487b7100000000000000000000000000000000000000000000000000000000600052603260045260246000fd5b90600052602060002001600090555b600181610fb29190611b60565b9050610f03565b5050565b600033905090565b600073ffffffffffffffffffffffffffffffffffffffff168373ffffffffffffffffffffffffffffffffffffffff161415611035576040517f08c379a000000000000000000000000000000000000000000000000000000000815260040161102c90611aae565b60405180910390fd5b600073ffffffffffffffffffffffffffffffffffffffff168273ffffffffffffffffffffffffffffffffffffffff1614156110a5576040517f08c379a000000000000000000000000000000000000000000000000000000000815260040161109c90611a0e565b60405180910390fd5b80600160008573ffffffffffffffffffffffffffffffffffffffff1673ffffffffffffffffffffffffffffffffffffffff16815260200190815260200160002060008473ffffffffffffffffffffffffffffffffffffffff1673ffffffffffffffffffffffffffffffffffffffff168152602001908152602001600020819055508173ffffffffffffffffffffffffffffffffffffffff168373ffffffffffffffffffffffffffffffffffffffff167f8c5be1e5ebec7d5bd14f71427d1e84f3dd0314c0f7b2291e5b200ac8c7c3b925836040516111839190611b0e565b60405180910390a3505050565b600073ffffffffffffffffffffffffffffffffffffffff168473ffffffffffffffffffffffffffffffffffffffff161415611200576040517f08c379a00000000000000000000000000000000000000000000000000000000081526004016111f790611a8e565b60405180910390fd5b600073ffffffffffffffffffffffffffffffffffffffff168373ffffffffffffffffffffffffffffffffffffffff161415611270576040517f08c379a0000000000000000000000000000000000000000000000000000000008152600401611267906119ee565b60405180910390fd5b6000600760008381526020019081526020016000206002015411156112ca576040517f08c379a00000000000000000000000000000000000000000000000000000000081526004016112c190611a6e565b60405180910390fd5b6112d684600084610c13565b6000600760008381526020019081526020016000209050848160000160006101000a81548173ffffffffffffffffffffffffffffffffffffffff021916908373ffffffffffffffffffffffffffffffffffffffff160217905550838160010160006101000a81548173ffffffffffffffffffffffffffffffffffffffff021916908373ffffffffffffffffffffffffffffffffffffffff160217905550828160020181905550600982908060018154018082558091505060019003906000526020600020016000909190919091505582600860008773ffffffffffffffffffffffffffffffffffffffff1673ffffffffffffffffffffffffffffffffffffffff16815260200190815260200160002060008282546113f49190611b60565b925050819055505050505050565b505050565b505050565b60008135905061141b81611d13565b92915050565b60008135905061143081611d2a565b92915050565b60006020828403121561144857600080fd5b60006114568482850161140c565b91505092915050565b6000806040838503121561147257600080fd5b60006114808582860161140c565b92505060206114918582860161140c565b9150509250929050565b6000806000606084860312156114b057600080fd5b60006114be8682870161140c565b93505060206114cf8682870161140c565b92505060406114e086828701611421565b9150509250925092565b600080604083850312156114fd57600080fd5b600061150b8582860161140c565b925050602061151c85828601611421565b9150509250929050565b60006020828403121561153857600080fd5b600061154684828501611421565b91505092915050565b6000806000806080858703121561156557600080fd5b600061157387828801611421565b94505060206115848782880161140c565b93505060406115958782880161140c565b92505060606115a687828801611421565b91505092959194509250565b6000806000606084860312156115c757600080fd5b60006115d586828701611421565b93505060206115e68682870161140c565b92505060406115f786828701611421565b9150509250925092565b61160a81611bfc565b82525050565b600061161b82611b44565b6116258185611b4f565b9350611635818560208601611c3f565b61163e81611d02565b840191505092915050565b6000611656602383611b4f565b91507f45524332303a207472616e7366657220746f20746865207a65726f206164647260008301527f65737300000000000000000000000000000000000000000000000000000000006020830152604082019050919050565b60006116bc602283611b4f565b91507f45524332303a20617070726f766520746f20746865207a65726f20616464726560008301527f73730000000000000000000000000000000000000000000000000000000000006020830152604082019050919050565b6000611722602683611b4f565b91507f45524332303a207472616e7366657220616d6f756e742065786365656473206260008301527f616c616e636500000000000000000000000000000000000000000000000000006020830152604082019050919050565b6000611788602883611b4f565b91507f45524332303a207472616e7366657220616d6f756e742065786365656473206160008301527f6c6c6f77616e63650000000000000000000000000000000000000000000000006020830152604082019050919050565b60006117ee601683611b4f565b91507f486f6c64206964206d75737420626520756e69717565000000000000000000006000830152602082019050919050565b600061182e602583611b4f565b91507f45524332303a207472616e736665722066726f6d20746865207a65726f20616460008301527f64726573730000000000000000000000000000000000000000000000000000006020830152604082019050919050565b6000611894602483611b4f565b91507f45524332303a20617070726f76652066726f6d20746865207a65726f2061646460008301527f72657373000000000000000000000000000000000000000000000000000000006020830152604082019050919050565b60006118fa601383611b4f565b91507f486f6c6420646f6573206e6f74206578697374000000000000000000000000006000830152602082019050919050565b600061193a602583611b4f565b91507f45524332303a2064656372656173656420616c6c6f77616e63652062656c6f7760008301527f207a65726f0000000000000000000000000000000000000000000000000000006020830152604082019050919050565b61199c81611c28565b82525050565b6119ab81611c32565b82525050565b60006020820190506119c66000830184611601565b92915050565b600060208201905081810360008301526119e68184611610565b905092915050565b60006020820190508181036000830152611a0781611649565b9050919050565b60006020820190508181036000830152611a27816116af565b9050919050565b60006020820190508181036000830152611a4781611715565b9050919050565b60006020820190508181036000830152611a678161177b565b9050919050565b60006020820190508181036000830152611a87816117e1565b9050919050565b60006020820190508181036000830152611aa781611821565b9050919050565b60006020820190508181036000830152611ac781611887565b9050919050565b60006020820190508181036000830152611ae7816118ed565b9050919050565b60006020820190508181036000830152611b078161192d565b9050919050565b6000602082019050611b236000830184611993565b92915050565b6000602082019050611b3e60008301846119a2565b92915050565b600081519050919050565b600082825260208201905092915050565b6000611b6b82611c28565b9150611b7683611c28565b9250827fffffffffffffffffffffffffffffffffffffffffffffffffffffffffffffffff03821115611bab57611baa611ca4565b5b828201905092915050565b6000611bc182611c28565b9150611bcc83611c28565b925082821015611bdf57611bde611ca4565b5b828203905092915050565b6000611bf582611c08565b9050919050565b60008115159050919050565b600073ffffffffffffffffffffffffffffffffffffffff82169050919050565b6000819050919050565b600060ff82169050919050565b60005b83811015611c5d578082015181840152602081019050611c42565b83811115611c6c576000848401525b50505050565b60006002820490506001821680611c8a57607f821691505b60208210811415611c9e57611c9d611cd3565b5b50919050565b7f4e487b7100000000000000000000000000000000000000000000000000000000600052601160045260246000fd5b7f4e487b7100000000000000000000000000000000000000000000000000000000600052602260045260246000fd5b6000601f19601f8301169050919050565b611d1c81611bea565b8114611d2757600080fd5b50565b611d3381611c28565b8114611d3e57600080fd5b5056fea2646970667358221220d39ae196a658d667cf04d1bca8c4e4327b04bc54ecc0cb042b1d69a931cfdc1c64736f6c63430008000033",
  "immutableReferences": {},
  "source": "// SPDX-License-Identifier: MIT\r\npragma solidity 0.8.0;\r\n\r\nimport \"@openzeppelin/contracts/token/ERC20/ERC20.sol\";\r\nimport \"./interfaces/IERC20Holdable.sol\";\r\n\r\ncontract ERC20Holdable is IERC20Holdable, ERC20 {\r\n  constructor(uint256 _supply) ERC20(\"ERC20Holdable\", \"ERC20H\") {\r\n    _mint(msg.sender, _supply * (10 ** decimals()));\r\n  }\r\n\r\n  struct Hold {\r\n      address sender;\r\n      address recipient;\r\n      uint256 amount;\r\n  }\r\n\r\n  mapping(address => mapping(address => uint256)) private _allowances;\r\n  mapping(address => uint256) private _balances;\r\n  mapping(uint256 => Hold) internal holds;\r\n  mapping(address => uint256) internal heldBalance;\r\n  uint256[] public holdIds;\r\n\r\n  function hold(\r\n    uint256 holdId,\r\n    address recipient,\r\n    uint256 amount\r\n  ) public override returns (bool)\r\n  {\r\n      _hold(_msgSender(), recipient, amount, holdId);\r\n      return true;\r\n  }\r\n\r\n  function holdFrom(\r\n    uint256 holdId,\r\n    address sender,\r\n    address recipient,\r\n    uint256 amount\r\n  ) public override returns (bool)\r\n  {\r\n\r\n      uint256 currentAllowance = _allowances[sender][_msgSender()];\r\n      require(currentAllowance >= amount, \"ERC20: transfer amount exceeds allowance\");\r\n      unchecked {\r\n          _approve(sender, _msgSender(), currentAllowance - amount);\r\n      }\r\n      _hold(sender, recipient, amount, holdId);\r\n\r\n      return true;\r\n  }\r\n\r\n  function executeHold(\r\n    uint256 holdId\r\n  ) public override returns (bool)\r\n  {\r\n      Hold storage executableHold = holds[holdId];\r\n\r\n      require(executableHold.amount > 0, \"Hold does not exist\");\r\n      _transfer(address(0), executableHold.recipient, executableHold.amount);\r\n      heldBalance[executableHold.sender] -= executableHold.amount;\r\n      _removeHold(holdId);\r\n\r\n      return true;\r\n  }\r\n\r\n  function removeHold(\r\n    uint256 holdId\r\n  ) public override returns (bool)\r\n  {\r\n      Hold storage removableHold = holds[holdId];\r\n\r\n      require(removableHold.amount > 0, \"Hold does not exist\");\r\n      _transfer(address(0), removableHold.sender, removableHold.amount);\r\n      heldBalance[removableHold.sender] -= removableHold.amount;\r\n      _removeHold(holdId);\r\n\r\n      return true;\r\n  }\r\n\r\n\r\n  /**\r\n   * @dev Moves `amount` of tokens from `sender` to account[0] to set it on hold.\r\n   *\r\n   * This internal function is equivalent to {hold}, and can be used to\r\n   * e.g. implement automatic token fees, slashing mechanisms, etc.\r\n   *\r\n   * Emits a {Transfer} event.\r\n   *\r\n   * Requirements:\r\n   *\r\n   * - `sender` cannot be the zero address.\r\n   * - `recipient` cannot be the zero address.\r\n   * - `sender` must have a balance of at least `amount`.\r\n   */\r\n  function _hold(\r\n      address sender,\r\n      address recipient,\r\n      uint256 amount,\r\n      uint256 holdId\r\n  ) internal virtual {\r\n      require(sender != address(0), \"ERC20: transfer from the zero address\");\r\n      require(recipient != address(0), \"ERC20: transfer to the zero address\");\r\n      require(holds[holdId].amount <= 0, \"Hold id must be unique\");\r\n\r\n      _transfer(sender, address(0), amount);\r\n\r\n      // uint256 senderBalance = _balances[sender];\r\n      //\r\n      // require(senderBalance >= amount, \"ERC20: transfer amount exceeds balance\");\r\n      // unchecked {\r\n      //     _balances[sender] = senderBalance - amount;\r\n      // }\r\n      // _balances[address(0)] += amount;\r\n\r\n      Hold storage newHold = holds[holdId];\r\n\r\n      newHold.sender = sender;\r\n      newHold.recipient = recipient;\r\n      newHold.amount = amount;\r\n      holdIds.push(holdId);\r\n\r\n      heldBalance[sender]+= amount;\r\n\r\n      //emit Transfer(sender, address(0), amount);\r\n  }\r\n\r\n  function _removeHold(\r\n    uint256 holdId\r\n  ) internal virtual {\r\n    delete holds[holdId];\r\n    uint i = 0;\r\n    for (i; i <holdIds.length; i = i+1) {  //for loop example\r\n       if( holdIds[i] == holdId){\r\n         delete holdIds[i];\r\n       }\r\n    }\r\n  }\r\n}\r\n",
  "sourcePath": "C:\\Users\\pablo\\Code\\ERC20-hold\\contracts\\ERC20Holdable.sol",
  "compiler": {
    "name": "solc",
    "version": "0.8.0+commit.c7dfd78e.Emscripten.clang"
  },
  "schemaVersion": "3.4.3",
  "updatedAt": "2021-11-08T20:21:21.740Z",
  "devdoc": {
    "kind": "dev",
    "methods": {
      "allowance(address,address)": {
        "details": "See {IERC20-allowance}."
      },
      "approve(address,uint256)": {
        "details": "See {IERC20-approve}. Requirements: - `spender` cannot be the zero address."
      },
      "balanceOf(address)": {
        "details": "See {IERC20-balanceOf}."
      },
      "decimals()": {
        "details": "Returns the number of decimals used to get its user representation. For example, if `decimals` equals `2`, a balance of `505` tokens should be displayed to a user as `5.05` (`505 / 10 ** 2`). Tokens usually opt for a value of 18, imitating the relationship between Ether and Wei. This is the value {ERC20} uses, unless this function is overridden; NOTE: This information is only used for _display_ purposes: it in no way affects any of the arithmetic of the contract, including {IERC20-balanceOf} and {IERC20-transfer}."
      },
      "decreaseAllowance(address,uint256)": {
        "details": "Atomically decreases the allowance granted to `spender` by the caller. This is an alternative to {approve} that can be used as a mitigation for problems described in {IERC20-approve}. Emits an {Approval} event indicating the updated allowance. Requirements: - `spender` cannot be the zero address. - `spender` must have allowance for the caller of at least `subtractedValue`."
      },
      "hold(uint256,address,uint256)": {
        "details": "Moves `amount` tokens from the caller's account to account[0] (the token owners account) until the hold is executed or returned. Returns a boolean value indicating whether the operation succeeded. Emits a {Transfer} event."
      },
      "holdFrom(uint256,address,address,uint256)": {
        "details": "Moves `amount` tokens from the caller's account to account[0] (the token owners account) using the allowance mechanism until the hold is executed or returned. `amount` is then deducted from the caller's allowance. Returns a boolean value indicating whether the operation succeeded. Emits a {Transfer} event."
      },
      "increaseAllowance(address,uint256)": {
        "details": "Atomically increases the allowance granted to `spender` by the caller. This is an alternative to {approve} that can be used as a mitigation for problems described in {IERC20-approve}. Emits an {Approval} event indicating the updated allowance. Requirements: - `spender` cannot be the zero address."
      },
      "name()": {
        "details": "Returns the name of the token."
      },
      "symbol()": {
        "details": "Returns the symbol of the token, usually a shorter version of the name."
      },
      "totalSupply()": {
        "details": "See {IERC20-totalSupply}."
      },
      "transfer(address,uint256)": {
        "details": "See {IERC20-transfer}. Requirements: - `recipient` cannot be the zero address. - the caller must have a balance of at least `amount`."
      },
      "transferFrom(address,address,uint256)": {
        "details": "See {IERC20-transferFrom}. Emits an {Approval} event indicating the updated allowance. This is not required by the EIP. See the note at the beginning of {ERC20}. Requirements: - `sender` and `recipient` cannot be the zero address. - `sender` must have a balance of at least `amount`. - the caller must have allowance for ``sender``'s tokens of at least `amount`."
      }
    },
    "version": 1
  },
  "userdoc": {
    "kind": "user",
    "methods": {
      "executeHold(uint256)": {
        "notice": "When the method is executed the money is transferred from the on hold balance to the wallet  where the hold was instructed.  It can only be executed by the same address that created the hold.  Emits a {Transfer} event."
      },
      "removeHold(uint256)": {
        "notice": "Returns the money on hold and all the balance is available for transfers.  This function can only be called by the owner of the contract.  Emits a {Transfer} event."
      }
    },
    "version": 1
  }
}