{
  "contractName": "ERC20Holdable",
  "abi": [
    {
      "inputs": [],
      "stateMutability": "nonpayable",
      "type": "constructor"
    },
    {
      "anonymous": false,
      "inputs": [
        {
          "indexed": true,
          "internalType": "address",
          "name": "owner",
          "type": "address"
        },
        {
          "indexed": true,
          "internalType": "address",
          "name": "spender",
          "type": "address"
        },
        {
          "indexed": false,
          "internalType": "uint256",
          "name": "value",
          "type": "uint256"
        }
      ],
      "name": "Approval",
      "type": "event"
    },
    {
      "anonymous": false,
      "inputs": [
        {
          "indexed": false,
          "internalType": "address",
          "name": "sender",
          "type": "address"
        },
        {
          "indexed": false,
          "internalType": "address",
          "name": "recipient",
          "type": "address"
        },
        {
          "indexed": false,
          "internalType": "uint256",
          "name": "amount",
          "type": "uint256"
        }
      ],
      "name": "HoldCreated",
      "type": "event"
    },
    {
      "anonymous": false,
      "inputs": [
        {
          "indexed": false,
          "internalType": "uint256",
          "name": "holdId",
          "type": "uint256"
        },
        {
          "indexed": false,
          "internalType": "address",
          "name": "sender",
          "type": "address"
        },
        {
          "indexed": false,
          "internalType": "address",
          "name": "recipient",
          "type": "address"
        },
        {
          "indexed": false,
          "internalType": "uint256",
          "name": "amount",
          "type": "uint256"
        }
      ],
      "name": "HoldExecuted",
      "type": "event"
    },
    {
      "anonymous": false,
      "inputs": [
        {
          "indexed": false,
          "internalType": "uint256",
          "name": "holdId",
          "type": "uint256"
        },
        {
          "indexed": false,
          "internalType": "address",
          "name": "sender",
          "type": "address"
        },
        {
          "indexed": false,
          "internalType": "address",
          "name": "recipient",
          "type": "address"
        },
        {
          "indexed": false,
          "internalType": "uint256",
          "name": "amount",
          "type": "uint256"
        }
      ],
      "name": "HoldRemoved",
      "type": "event"
    },
    {
      "anonymous": false,
      "inputs": [
        {
          "indexed": true,
          "internalType": "address",
          "name": "from",
          "type": "address"
        },
        {
          "indexed": true,
          "internalType": "address",
          "name": "to",
          "type": "address"
        },
        {
          "indexed": false,
          "internalType": "uint256",
          "name": "value",
          "type": "uint256"
        }
      ],
      "name": "Transfer",
      "type": "event"
    },
    {
      "inputs": [],
      "name": "DECIMALS",
      "outputs": [
        {
          "internalType": "uint8",
          "name": "",
          "type": "uint8"
        }
      ],
      "stateMutability": "view",
      "type": "function",
      "constant": true
    },
    {
      "inputs": [],
      "name": "INITIAL_SUPPLY",
      "outputs": [
        {
          "internalType": "uint256",
          "name": "",
          "type": "uint256"
        }
      ],
      "stateMutability": "view",
      "type": "function",
      "constant": true
    },
    {
      "inputs": [
        {
          "internalType": "address",
          "name": "owner",
          "type": "address"
        },
        {
          "internalType": "address",
          "name": "spender",
          "type": "address"
        }
      ],
      "name": "allowance",
      "outputs": [
        {
          "internalType": "uint256",
          "name": "",
          "type": "uint256"
        }
      ],
      "stateMutability": "view",
      "type": "function",
      "constant": true
    },
    {
      "inputs": [
        {
          "internalType": "address",
          "name": "spender",
          "type": "address"
        },
        {
          "internalType": "uint256",
          "name": "amount",
          "type": "uint256"
        }
      ],
      "name": "approve",
      "outputs": [
        {
          "internalType": "bool",
          "name": "",
          "type": "bool"
        }
      ],
      "stateMutability": "nonpayable",
      "type": "function"
    },
    {
      "inputs": [
        {
          "internalType": "address",
          "name": "account",
          "type": "address"
        }
      ],
      "name": "balanceOf",
      "outputs": [
        {
          "internalType": "uint256",
          "name": "",
          "type": "uint256"
        }
      ],
      "stateMutability": "view",
      "type": "function",
      "constant": true
    },
    {
      "inputs": [],
      "name": "decimals",
      "outputs": [
        {
          "internalType": "uint8",
          "name": "",
          "type": "uint8"
        }
      ],
      "stateMutability": "view",
      "type": "function",
      "constant": true
    },
    {
      "inputs": [
        {
          "internalType": "address",
          "name": "spender",
          "type": "address"
        },
        {
          "internalType": "uint256",
          "name": "subtractedValue",
          "type": "uint256"
        }
      ],
      "name": "decreaseAllowance",
      "outputs": [
        {
          "internalType": "bool",
          "name": "",
          "type": "bool"
        }
      ],
      "stateMutability": "nonpayable",
      "type": "function"
    },
    {
      "inputs": [
        {
          "internalType": "address",
          "name": "",
          "type": "address"
        }
      ],
      "name": "heldBalance",
      "outputs": [
        {
          "internalType": "uint256",
          "name": "",
          "type": "uint256"
        }
      ],
      "stateMutability": "view",
      "type": "function",
      "constant": true
    },
    {
      "inputs": [
        {
          "internalType": "uint256",
          "name": "",
          "type": "uint256"
        }
      ],
      "name": "holdIds",
      "outputs": [
        {
          "internalType": "uint256",
          "name": "",
          "type": "uint256"
        }
      ],
      "stateMutability": "view",
      "type": "function",
      "constant": true
    },
    {
      "inputs": [
        {
          "internalType": "uint256",
          "name": "",
          "type": "uint256"
        }
      ],
      "name": "holds",
      "outputs": [
        {
          "internalType": "address",
          "name": "sender",
          "type": "address"
        },
        {
          "internalType": "address",
          "name": "recipient",
          "type": "address"
        },
        {
          "internalType": "uint256",
          "name": "amount",
          "type": "uint256"
        }
      ],
      "stateMutability": "view",
      "type": "function",
      "constant": true
    },
    {
      "inputs": [
        {
          "internalType": "address",
          "name": "spender",
          "type": "address"
        },
        {
          "internalType": "uint256",
          "name": "addedValue",
          "type": "uint256"
        }
      ],
      "name": "increaseAllowance",
      "outputs": [
        {
          "internalType": "bool",
          "name": "",
          "type": "bool"
        }
      ],
      "stateMutability": "nonpayable",
      "type": "function"
    },
    {
      "inputs": [],
      "name": "name",
      "outputs": [
        {
          "internalType": "string",
          "name": "",
          "type": "string"
        }
      ],
      "stateMutability": "view",
      "type": "function",
      "constant": true
    },
    {
      "inputs": [],
      "name": "symbol",
      "outputs": [
        {
          "internalType": "string",
          "name": "",
          "type": "string"
        }
      ],
      "stateMutability": "view",
      "type": "function",
      "constant": true
    },
    {
      "inputs": [],
      "name": "totalSupply",
      "outputs": [
        {
          "internalType": "uint256",
          "name": "",
          "type": "uint256"
        }
      ],
      "stateMutability": "view",
      "type": "function",
      "constant": true
    },
    {
      "inputs": [
        {
          "internalType": "address",
          "name": "recipient",
          "type": "address"
        },
        {
          "internalType": "uint256",
          "name": "amount",
          "type": "uint256"
        }
      ],
      "name": "transfer",
      "outputs": [
        {
          "internalType": "bool",
          "name": "",
          "type": "bool"
        }
      ],
      "stateMutability": "nonpayable",
      "type": "function"
    },
    {
      "inputs": [
        {
          "internalType": "address",
          "name": "sender",
          "type": "address"
        },
        {
          "internalType": "address",
          "name": "recipient",
          "type": "address"
        },
        {
          "internalType": "uint256",
          "name": "amount",
          "type": "uint256"
        }
      ],
      "name": "transferFrom",
      "outputs": [
        {
          "internalType": "bool",
          "name": "",
          "type": "bool"
        }
      ],
      "stateMutability": "nonpayable",
      "type": "function"
    },
    {
      "inputs": [
        {
          "internalType": "uint256",
          "name": "holdId",
          "type": "uint256"
        },
        {
          "internalType": "address",
          "name": "recipient",
          "type": "address"
        },
        {
          "internalType": "uint256",
          "name": "amount",
          "type": "uint256"
        }
      ],
      "name": "hold",
      "outputs": [
        {
          "internalType": "uint256",
          "name": "",
          "type": "uint256"
        }
      ],
      "stateMutability": "nonpayable",
      "type": "function"
    },
    {
      "inputs": [
        {
          "internalType": "uint256",
          "name": "holdId",
          "type": "uint256"
        },
        {
          "internalType": "address",
          "name": "recipient",
          "type": "address"
        },
        {
          "internalType": "uint256",
          "name": "amount",
          "type": "uint256"
        }
      ],
      "name": "holdFrom",
      "outputs": [
        {
          "internalType": "uint256",
          "name": "",
          "type": "uint256"
        }
      ],
      "stateMutability": "nonpayable",
      "type": "function"
    },
    {
      "inputs": [
        {
          "internalType": "uint256",
          "name": "holdId",
          "type": "uint256"
        }
      ],
      "name": "executeHold",
      "outputs": [
        {
          "internalType": "bool",
          "name": "",
          "type": "bool"
        }
      ],
      "stateMutability": "nonpayable",
      "type": "function"
    },
    {
      "inputs": [
        {
          "internalType": "uint256",
          "name": "holdId",
          "type": "uint256"
        }
      ],
      "name": "cancelHold",
      "outputs": [
        {
          "internalType": "bool",
          "name": "",
          "type": "bool"
        }
      ],
      "stateMutability": "nonpayable",
      "type": "function"
    },
    {
      "inputs": [
        {
          "internalType": "address",
          "name": "userAddress",
          "type": "address"
        }
      ],
      "name": "getUserHolds",
      "outputs": [
        {
          "components": [
            {
              "internalType": "address",
              "name": "sender",
              "type": "address"
            },
            {
              "internalType": "address",
              "name": "recipient",
              "type": "address"
            },
            {
              "internalType": "uint256",
              "name": "amount",
              "type": "uint256"
            }
          ],
          "internalType": "struct IERC20Holdable.Hold[]",
          "name": "",
          "type": "tuple[]"
        }
      ],
      "stateMutability": "view",
      "type": "function",
      "constant": true
    },
    {
      "inputs": [],
      "name": "getHolds",
      "outputs": [
        {
          "components": [
            {
              "internalType": "address",
              "name": "sender",
              "type": "address"
            },
            {
              "internalType": "address",
              "name": "recipient",
              "type": "address"
            },
            {
              "internalType": "uint256",
              "name": "amount",
              "type": "uint256"
            }
          ],
          "internalType": "struct IERC20Holdable.Hold[]",
          "name": "",
          "type": "tuple[]"
        }
      ],
      "stateMutability": "view",
      "type": "function",
      "constant": true
    },
    {
      "inputs": [
        {
          "internalType": "uint256",
          "name": "holdId",
          "type": "uint256"
        }
      ],
      "name": "getHold",
      "outputs": [
        {
          "components": [
            {
              "internalType": "address",
              "name": "sender",
              "type": "address"
            },
            {
              "internalType": "address",
              "name": "recipient",
              "type": "address"
            },
            {
              "internalType": "uint256",
              "name": "amount",
              "type": "uint256"
            }
          ],
          "internalType": "struct IERC20Holdable.Hold",
          "name": "",
          "type": "tuple"
        }
      ],
      "stateMutability": "view",
      "type": "function",
      "constant": true
    }
  ],
  "bytecode": "0x60806040523480156200001157600080fd5b506040518060400160405280600d81526020017f4552433230486f6c6461626c65000000000000000000000000000000000000008152506040518060400160405280600681526020017f4552433230480000000000000000000000000000000000000000000000000000815250816003908051906020019062000096929190620002e5565b508060049080519060200190620000af929190620002e5565b50505033600560006101000a81548173ffffffffffffffffffffffffffffffffffffffff021916908373ffffffffffffffffffffffffffffffffffffffff16021790555062000153600560009054906101000a900473ffffffffffffffffffffffffffffffffffffffff166200012a6200015960201b60201c565b600a620001389190620004f0565b6127106200014791906200062d565b6200016260201b60201c565b62000746565b60006012905090565b600073ffffffffffffffffffffffffffffffffffffffff168273ffffffffffffffffffffffffffffffffffffffff161415620001d5576040517f08c379a0000000000000000000000000000000000000000000000000000000008152600401620001cc90620003e8565b60405180910390fd5b620001e960008383620002db60201b60201c565b8060026000828254620001fd919062000438565b92505081905550806000808473ffffffffffffffffffffffffffffffffffffffff1673ffffffffffffffffffffffffffffffffffffffff168152602001908152602001600020600082825462000254919062000438565b925050819055508173ffffffffffffffffffffffffffffffffffffffff16600073ffffffffffffffffffffffffffffffffffffffff167fddf252ad1be2c89b69c2b068fc378daa952ba7f163c4a11628f55a4df523b3ef83604051620002bb91906200040a565b60405180910390a3620002d760008383620002e060201b60201c565b5050565b505050565b505050565b828054620002f390620006a5565b90600052602060002090601f01602090048101928262000317576000855562000363565b82601f106200033257805160ff191683800117855562000363565b8280016001018555821562000363579182015b828111156200036257825182559160200191906001019062000345565b5b50905062000372919062000376565b5090565b5b808211156200039157600081600090555060010162000377565b5090565b6000620003a4601f8362000427565b91507f45524332303a206d696e7420746f20746865207a65726f2061646472657373006000830152602082019050919050565b620003e2816200068e565b82525050565b60006020820190508181036000830152620004038162000395565b9050919050565b6000602082019050620004216000830184620003d7565b92915050565b600082825260208201905092915050565b600062000445826200068e565b915062000452836200068e565b9250827fffffffffffffffffffffffffffffffffffffffffffffffffffffffffffffffff038211156200048a5762000489620006db565b5b828201905092915050565b6000808291508390505b6001851115620004e757808604811115620004bf57620004be620006db565b5b6001851615620004cf5780820291505b8081029050620004df8562000739565b94506200049f565b94509492505050565b6000620004fd826200068e565b91506200050a8362000698565b9250620005397fffffffffffffffffffffffffffffffffffffffffffffffffffffffffffffffff848462000541565b905092915050565b60008262000553576001905062000626565b8162000563576000905062000626565b81600181146200057c57600281146200058757620005bd565b600191505062000626565b60ff8411156200059c576200059b620006db565b5b8360020a915084821115620005b657620005b5620006db565b5b5062000626565b5060208310610133831016604e8410600b8410161715620005f75782820a905083811115620005f157620005f0620006db565b5b62000626565b62000606848484600162000495565b9250905081840481111562000620576200061f620006db565b5b81810290505b9392505050565b60006200063a826200068e565b915062000647836200068e565b9250817fffffffffffffffffffffffffffffffffffffffffffffffffffffffffffffffff0483118215151615620006835762000682620006db565b5b828202905092915050565b6000819050919050565b600060ff82169050919050565b60006002820490506001821680620006be57607f821691505b60208210811415620006d557620006d46200070a565b5b50919050565b7f4e487b7100000000000000000000000000000000000000000000000000000000600052601160045260246000fd5b7f4e487b7100000000000000000000000000000000000000000000000000000000600052602260045260246000fd5b60008160011c9050919050565b612e1680620007566000396000f3fe608060405234801561001057600080fd5b506004361061014d5760003560e01c806370369869116100c3578063a9059cbb1161007c578063a9059cbb14610404578063b71b058214610434578063dd62ed3e14610466578063eb119c9714610496578063f10c974f146104c6578063f718bdfe146104f65761014d565b80637036986914610308578063705dae3c1461033857806370a0823114610356578063800b1dbb1461038657806395d89b41146103b6578063a457c2d7146103d45761014d565b806323b872dd1161011557806323b872dd1461021e5780632e0f26251461024e5780632ff2e9dc1461026c578063313ce5671461028a57806338b54540146102a857806339509351146102d85761014d565b806306fdde0314610152578063095ea7b31461017057806312c38364146101a057806318160ddd146101d0578063226aa68a146101ee575b600080fd5b61015a610526565b6040516101679190612771565b60405180910390f35b61018a600480360381019061018591906120a6565b6105b8565b6040516101979190612756565b60405180910390f35b6101ba60048036038101906101b591906120e2565b6105d6565b6040516101c79190612756565b60405180910390f35b6101d861089c565b6040516101e5919061290e565b60405180910390f35b6102086004803603810190610203919061210b565b6108a6565b604051610215919061290e565b60405180910390f35b61023860048036038101906102339190612057565b610907565b6040516102459190612756565b60405180910390f35b6102566109ff565b604051610263919061296e565b60405180910390f35b610274610a04565b604051610281919061290e565b60405180910390f35b610292610a25565b60405161029f919061296e565b60405180910390f35b6102c260048036038101906102bd91906120e2565b610a2e565b6040516102cf91906128f3565b60405180910390f35b6102f260048036038101906102ed91906120a6565b610b17565b6040516102ff9190612756565b60405180910390f35b610322600480360381019061031d91906120e2565b610bc3565b60405161032f9190612756565b60405180910390f35b610340610e28565b60405161034d9190612734565b60405180910390f35b610370600480360381019061036b9190611ff2565b611035565b60405161037d919061290e565b60405180910390f35b6103a0600480360381019061039b919061210b565b61107d565b6040516103ad919061290e565b60405180910390f35b6103be6111cc565b6040516103cb9190612771565b60405180910390f35b6103ee60048036038101906103e991906120a6565b61125e565b6040516103fb9190612756565b60405180910390f35b61041e600480360381019061041991906120a6565b611349565b60405161042b9190612756565b60405180910390f35b61044e600480360381019061044991906120e2565b611367565b60405161045d939291906126fd565b60405180910390f35b610480600480360381019061047b919061201b565b6113d1565b60405161048d919061290e565b60405180910390f35b6104b060048036038101906104ab91906120e2565b611458565b6040516104bd919061290e565b60405180910390f35b6104e060048036038101906104db9190611ff2565b61147c565b6040516104ed919061290e565b60405180910390f35b610510600480360381019061050b9190611ff2565b611494565b60405161051d9190612734565b60405180910390f35b60606003805461053590612cbb565b80601f016020809104026020016040519081016040528092919081815260200182805461056190612cbb565b80156105ae5780601f10610583576101008083540402835291602001916105ae565b820191906000526020600020905b81548152906001019060200180831161059157829003601f168201915b5050505050905090565b60006105cc6105c5611841565b8484611849565b6001905092915050565b600080600860008481526020019081526020016000209050600560009054906101000a900473ffffffffffffffffffffffffffffffffffffffff1673ffffffffffffffffffffffffffffffffffffffff1661062f611841565b73ffffffffffffffffffffffffffffffffffffffff1614806106a75750610654611841565b73ffffffffffffffffffffffffffffffffffffffff168160000160009054906101000a900473ffffffffffffffffffffffffffffffffffffffff1673ffffffffffffffffffffffffffffffffffffffff16145b6106e6576040517f08c379a00000000000000000000000000000000000000000000000000000000081526004016106dd906127f3565b60405180910390fd5b600081600201541161072d576040517f08c379a0000000000000000000000000000000000000000000000000000000008152600401610724906128b3565b60405180910390fd5b610782600560009054906101000a900473ffffffffffffffffffffffffffffffffffffffff168260010160009054906101000a900473ffffffffffffffffffffffffffffffffffffffff168360020154611a14565b8060020154600960008360000160009054906101000a900473ffffffffffffffffffffffffffffffffffffffff1673ffffffffffffffffffffffffffffffffffffffff1673ffffffffffffffffffffffffffffffffffffffff16815260200190815260200160002060008282546107f99190612bff565b9250508190555061080983611c95565b7f25bfaf5a77b3c6797250278df23201f88596159d87d6e1af0996ecec716475c9838260000160009054906101000a900473ffffffffffffffffffffffffffffffffffffffff168360010160009054906101000a900473ffffffffffffffffffffffffffffffffffffffff16846002015460405161088a9493929190612929565b60405180910390a16001915050919050565b6000600254905090565b60006108bb6108b3611841565b848487611dbe565b7fb43d8d34f53afafe6ac0a3e9f7c75dd7dd1eb0bb1c377b4ac1bed76432eee9c36108e4611841565b84846040516108f5939291906126fd565b60405180910390a18390509392505050565b6000610914848484611a14565b6000600160008673ffffffffffffffffffffffffffffffffffffffff1673ffffffffffffffffffffffffffffffffffffffff168152602001908152602001600020600061095f611841565b73ffffffffffffffffffffffffffffffffffffffff1673ffffffffffffffffffffffffffffffffffffffff168152602001908152602001600020549050828110156109df576040517f08c379a00000000000000000000000000000000000000000000000000000000081526004016109d690612833565b60405180910390fd5b6109f3856109eb611841565b858403611849565b60019150509392505050565b601281565b601260ff16600a610a159190612a87565b612710610a229190612ba5565b81565b60006012905090565b610a36611f7b565b6000600860008481526020019081526020016000206040518060600160405290816000820160009054906101000a900473ffffffffffffffffffffffffffffffffffffffff1673ffffffffffffffffffffffffffffffffffffffff1673ffffffffffffffffffffffffffffffffffffffff1681526020016001820160009054906101000a900473ffffffffffffffffffffffffffffffffffffffff1673ffffffffffffffffffffffffffffffffffffffff1673ffffffffffffffffffffffffffffffffffffffff168152602001600282015481525050905080915050919050565b6000610bb9610b24611841565b848460016000610b32611841565b73ffffffffffffffffffffffffffffffffffffffff1673ffffffffffffffffffffffffffffffffffffffff16815260200190815260200160002060008873ffffffffffffffffffffffffffffffffffffffff1673ffffffffffffffffffffffffffffffffffffffff16815260200190815260200160002054610bb491906129de565b611849565b6001905092915050565b600080600860008481526020019081526020016000209050600560009054906101000a900473ffffffffffffffffffffffffffffffffffffffff1673ffffffffffffffffffffffffffffffffffffffff16610c1c611841565b73ffffffffffffffffffffffffffffffffffffffff1614610c72576040517f08c379a0000000000000000000000000000000000000000000000000000000008152600401610c6990612813565b60405180910390fd5b6000816002015411610cb9576040517f08c379a0000000000000000000000000000000000000000000000000000000008152600401610cb0906128b3565b60405180910390fd5b610d0e600560009054906101000a900473ffffffffffffffffffffffffffffffffffffffff168260000160009054906101000a900473ffffffffffffffffffffffffffffffffffffffff168360020154611a14565b8060020154600960008360000160009054906101000a900473ffffffffffffffffffffffffffffffffffffffff1673ffffffffffffffffffffffffffffffffffffffff1673ffffffffffffffffffffffffffffffffffffffff1681526020019081526020016000206000828254610d859190612bff565b925050819055507f884cb943f66d73232ffce6deaa23c963af2020f98cdf64c5c509d6d8f088ee7f838260000160009054906101000a900473ffffffffffffffffffffffffffffffffffffffff168360010160009054906101000a900473ffffffffffffffffffffffffffffffffffffffff168460020154604051610e0d9493929190612929565b60405180910390a1610e1e83611c95565b6001915050919050565b60606000600a8054905067ffffffffffffffff811115610e71577f4e487b7100000000000000000000000000000000000000000000000000000000600052604160045260246000fd5b604051908082528060200260200182016040528015610eaa57816020015b610e97611f7b565b815260200190600190039081610e8f5790505b50905060005b600a8054905081101561102d5760086000600a8381548110610efb577f4e487b7100000000000000000000000000000000000000000000000000000000600052603260045260246000fd5b906000526020600020015481526020019081526020016000206040518060600160405290816000820160009054906101000a900473ffffffffffffffffffffffffffffffffffffffff1673ffffffffffffffffffffffffffffffffffffffff1673ffffffffffffffffffffffffffffffffffffffff1681526020016001820160009054906101000a900473ffffffffffffffffffffffffffffffffffffffff1673ffffffffffffffffffffffffffffffffffffffff1673ffffffffffffffffffffffffffffffffffffffff16815260200160028201548152505082828151811061100e577f4e487b7100000000000000000000000000000000000000000000000000000000600052603260045260246000fd5b602002602001018190525060018161102691906129de565b9050610eb0565b508091505090565b60008060008373ffffffffffffffffffffffffffffffffffffffff1673ffffffffffffffffffffffffffffffffffffffff168152602001908152602001600020549050919050565b600061109261108a611841565b848487611dbe565b6000600660006110a0611841565b73ffffffffffffffffffffffffffffffffffffffff1673ffffffffffffffffffffffffffffffffffffffff16815260200190815260200160002060006110e4611841565b73ffffffffffffffffffffffffffffffffffffffff1673ffffffffffffffffffffffffffffffffffffffff16815260200190815260200160002054905082811015611164576040517f08c379a000000000000000000000000000000000000000000000000000000000815260040161115b90612833565b60405180910390fd5b61117f61116f611841565b611177611841565b858403611849565b7fb43d8d34f53afafe6ac0a3e9f7c75dd7dd1eb0bb1c377b4ac1bed76432eee9c36111a8611841565b85856040516111b9939291906126fd565b60405180910390a1849150509392505050565b6060600480546111db90612cbb565b80601f016020809104026020016040519081016040528092919081815260200182805461120790612cbb565b80156112545780601f1061122957610100808354040283529160200191611254565b820191906000526020600020905b81548152906001019060200180831161123757829003601f168201915b5050505050905090565b6000806001600061126d611841565b73ffffffffffffffffffffffffffffffffffffffff1673ffffffffffffffffffffffffffffffffffffffff16815260200190815260200160002060008573ffffffffffffffffffffffffffffffffffffffff1673ffffffffffffffffffffffffffffffffffffffff1681526020019081526020016000205490508281101561132a576040517f08c379a0000000000000000000000000000000000000000000000000000000008152600401611321906128d3565b60405180910390fd5b61133e611335611841565b85858403611849565b600191505092915050565b600061135d611356611841565b8484611a14565b6001905092915050565b60086020528060005260406000206000915090508060000160009054906101000a900473ffffffffffffffffffffffffffffffffffffffff16908060010160009054906101000a900473ffffffffffffffffffffffffffffffffffffffff16908060020154905083565b6000600160008473ffffffffffffffffffffffffffffffffffffffff1673ffffffffffffffffffffffffffffffffffffffff16815260200190815260200160002060008373ffffffffffffffffffffffffffffffffffffffff1673ffffffffffffffffffffffffffffffffffffffff16815260200190815260200160002054905092915050565b600a818154811061146857600080fd5b906000526020600020016000915090505481565b60096020528060005260406000206000915090505481565b60606000805b600a80549050811015611578578373ffffffffffffffffffffffffffffffffffffffff1660086000600a84815481106114fc577f4e487b7100000000000000000000000000000000000000000000000000000000600052603260045260246000fd5b9060005260206000200154815260200190815260200160002060000160009054906101000a900473ffffffffffffffffffffffffffffffffffffffff1673ffffffffffffffffffffffffffffffffffffffff16141561156457818061156090612ced565b9250505b60018161157191906129de565b905061149a565b5060008167ffffffffffffffff8111156115bb577f4e487b7100000000000000000000000000000000000000000000000000000000600052604160045260246000fd5b6040519080825280602002602001820160405280156115f457816020015b6115e1611f7b565b8152602001906001900390816115d95790505b5090506000805b600a80549050811015611835578573ffffffffffffffffffffffffffffffffffffffff1660086000600a848154811061165d577f4e487b7100000000000000000000000000000000000000000000000000000000600052603260045260246000fd5b9060005260206000200154815260200190815260200160002060000160009054906101000a900473ffffffffffffffffffffffffffffffffffffffff1673ffffffffffffffffffffffffffffffffffffffff1614156118215760086000600a83815481106116f4577f4e487b7100000000000000000000000000000000000000000000000000000000600052603260045260246000fd5b906000526020600020015481526020019081526020016000206040518060600160405290816000820160009054906101000a900473ffffffffffffffffffffffffffffffffffffffff1673ffffffffffffffffffffffffffffffffffffffff1673ffffffffffffffffffffffffffffffffffffffff1681526020016001820160009054906101000a900473ffffffffffffffffffffffffffffffffffffffff1673ffffffffffffffffffffffffffffffffffffffff1673ffffffffffffffffffffffffffffffffffffffff168152602001600282015481525050838381518110611807577f4e487b7100000000000000000000000000000000000000000000000000000000600052603260045260246000fd5b6020026020010181905250818061181d90612ced565b9250505b60018161182e91906129de565b90506115fb565b50819350505050919050565b600033905090565b600073ffffffffffffffffffffffffffffffffffffffff168373ffffffffffffffffffffffffffffffffffffffff1614156118b9576040517f08c379a00000000000000000000000000000000000000000000000000000000081526004016118b090612893565b60405180910390fd5b600073ffffffffffffffffffffffffffffffffffffffff168273ffffffffffffffffffffffffffffffffffffffff161415611929576040517f08c379a0000000000000000000000000000000000000000000000000000000008152600401611920906127b3565b60405180910390fd5b80600160008573ffffffffffffffffffffffffffffffffffffffff1673ffffffffffffffffffffffffffffffffffffffff16815260200190815260200160002060008473ffffffffffffffffffffffffffffffffffffffff1673ffffffffffffffffffffffffffffffffffffffff168152602001908152602001600020819055508173ffffffffffffffffffffffffffffffffffffffff168373ffffffffffffffffffffffffffffffffffffffff167f8c5be1e5ebec7d5bd14f71427d1e84f3dd0314c0f7b2291e5b200ac8c7c3b92583604051611a07919061290e565b60405180910390a3505050565b600073ffffffffffffffffffffffffffffffffffffffff168373ffffffffffffffffffffffffffffffffffffffff161415611a84576040517f08c379a0000000000000000000000000000000000000000000000000000000008152600401611a7b90612873565b60405180910390fd5b600073ffffffffffffffffffffffffffffffffffffffff168273ffffffffffffffffffffffffffffffffffffffff161415611af4576040517f08c379a0000000000000000000000000000000000000000000000000000000008152600401611aeb90612793565b60405180910390fd5b611aff838383611f71565b60008060008573ffffffffffffffffffffffffffffffffffffffff1673ffffffffffffffffffffffffffffffffffffffff16815260200190815260200160002054905081811015611b85576040517f08c379a0000000000000000000000000000000000000000000000000000000008152600401611b7c906127d3565b60405180910390fd5b8181036000808673ffffffffffffffffffffffffffffffffffffffff1673ffffffffffffffffffffffffffffffffffffffff16815260200190815260200160002081905550816000808573ffffffffffffffffffffffffffffffffffffffff1673ffffffffffffffffffffffffffffffffffffffff1681526020019081526020016000206000828254611c1891906129de565b925050819055508273ffffffffffffffffffffffffffffffffffffffff168473ffffffffffffffffffffffffffffffffffffffff167fddf252ad1be2c89b69c2b068fc378daa952ba7f163c4a11628f55a4df523b3ef84604051611c7c919061290e565b60405180910390a3611c8f848484611f76565b50505050565b60086000828152602001908152602001600020600080820160006101000a81549073ffffffffffffffffffffffffffffffffffffffff02191690556001820160006101000a81549073ffffffffffffffffffffffffffffffffffffffff02191690556002820160009055505060005b600a80549050811015611dba5781600a8281548110611d4c577f4e487b7100000000000000000000000000000000000000000000000000000000600052603260045260246000fd5b90600052602060002001541415611da657600a8181548110611d97577f4e487b7100000000000000000000000000000000000000000000000000000000600052603260045260246000fd5b90600052602060002001600090555b600181611db391906129de565b9050611d04565b5050565b600060086000838152602001908152602001600020600201541115611e18576040517f08c379a0000000000000000000000000000000000000000000000000000000008152600401611e0f90612853565b60405180910390fd5b611e4584600560009054906101000a900473ffffffffffffffffffffffffffffffffffffffff1684611a14565b6000600860008381526020019081526020016000209050848160000160006101000a81548173ffffffffffffffffffffffffffffffffffffffff021916908373ffffffffffffffffffffffffffffffffffffffff160217905550838160010160006101000a81548173ffffffffffffffffffffffffffffffffffffffff021916908373ffffffffffffffffffffffffffffffffffffffff160217905550828160020181905550600a82908060018154018082558091505060019003906000526020600020016000909190919091505582600960008773ffffffffffffffffffffffffffffffffffffffff1673ffffffffffffffffffffffffffffffffffffffff1681526020019081526020016000206000828254611f6391906129de565b925050819055505050505050565b505050565b505050565b6040518060600160405280600073ffffffffffffffffffffffffffffffffffffffff168152602001600073ffffffffffffffffffffffffffffffffffffffff168152602001600081525090565b600081359050611fd781612db2565b92915050565b600081359050611fec81612dc9565b92915050565b60006020828403121561200457600080fd5b600061201284828501611fc8565b91505092915050565b6000806040838503121561202e57600080fd5b600061203c85828601611fc8565b925050602061204d85828601611fc8565b9150509250929050565b60008060006060848603121561206c57600080fd5b600061207a86828701611fc8565b935050602061208b86828701611fc8565b925050604061209c86828701611fdd565b9150509250925092565b600080604083850312156120b957600080fd5b60006120c785828601611fc8565b92505060206120d885828601611fdd565b9150509250929050565b6000602082840312156120f457600080fd5b600061210284828501611fdd565b91505092915050565b60008060006060848603121561212057600080fd5b600061212e86828701611fdd565b935050602061213f86828701611fc8565b925050604061215086828701611fdd565b9150509250925092565b6000612166838361264c565b60608301905092915050565b61217b81612c33565b82525050565b61218a81612c33565b82525050565b600061219b82612999565b6121a581856129bc565b93506121b083612989565b8060005b838110156121e15781516121c8888261215a565b97506121d3836129af565b9250506001810190506121b4565b5085935050505092915050565b6121f781612c45565b82525050565b6000612208826129a4565b61221281856129cd565b9350612222818560208601612c88565b61222b81612d94565b840191505092915050565b60006122436023836129cd565b91507f45524332303a207472616e7366657220746f20746865207a65726f206164647260008301527f65737300000000000000000000000000000000000000000000000000000000006020830152604082019050919050565b60006122a96022836129cd565b91507f45524332303a20617070726f766520746f20746865207a65726f20616464726560008301527f73730000000000000000000000000000000000000000000000000000000000006020830152604082019050919050565b600061230f6026836129cd565b91507f45524332303a207472616e7366657220616d6f756e742065786365656473206260008301527f616c616e636500000000000000000000000000000000000000000000000000006020830152604082019050919050565b60006123756039836129cd565b91507f4f6e6c7920636f6e7472616374206f776e6572206f7220686f6c64206372656160008301527f746f722063616e20657865637574652074686520686f6c642e000000000000006020830152604082019050919050565b60006123db6028836129cd565b91507f4f6e6c7920636f6e7472616374206f776e65722063616e20726576657274207460008301527f686520686f6c642e0000000000000000000000000000000000000000000000006020830152604082019050919050565b60006124416028836129cd565b91507f45524332303a207472616e7366657220616d6f756e742065786365656473206160008301527f6c6c6f77616e63650000000000000000000000000000000000000000000000006020830152604082019050919050565b60006124a76016836129cd565b91507f486f6c64206964206d75737420626520756e69717565000000000000000000006000830152602082019050919050565b60006124e76025836129cd565b91507f45524332303a207472616e736665722066726f6d20746865207a65726f20616460008301527f64726573730000000000000000000000000000000000000000000000000000006020830152604082019050919050565b600061254d6024836129cd565b91507f45524332303a20617070726f76652066726f6d20746865207a65726f2061646460008301527f72657373000000000000000000000000000000000000000000000000000000006020830152604082019050919050565b60006125b36013836129cd565b91507f486f6c6420646f6573206e6f74206578697374000000000000000000000000006000830152602082019050919050565b60006125f36025836129cd565b91507f45524332303a2064656372656173656420616c6c6f77616e63652062656c6f7760008301527f207a65726f0000000000000000000000000000000000000000000000000000006020830152604082019050919050565b6060820160008201516126626000850182612172565b5060208201516126756020850182612172565b50604082015161268860408501826126d0565b50505050565b6060820160008201516126a46000850182612172565b5060208201516126b76020850182612172565b5060408201516126ca60408501826126d0565b50505050565b6126d981612c71565b82525050565b6126e881612c71565b82525050565b6126f781612c7b565b82525050565b60006060820190506127126000830186612181565b61271f6020830185612181565b61272c60408301846126df565b949350505050565b6000602082019050818103600083015261274e8184612190565b905092915050565b600060208201905061276b60008301846121ee565b92915050565b6000602082019050818103600083015261278b81846121fd565b905092915050565b600060208201905081810360008301526127ac81612236565b9050919050565b600060208201905081810360008301526127cc8161229c565b9050919050565b600060208201905081810360008301526127ec81612302565b9050919050565b6000602082019050818103600083015261280c81612368565b9050919050565b6000602082019050818103600083015261282c816123ce565b9050919050565b6000602082019050818103600083015261284c81612434565b9050919050565b6000602082019050818103600083015261286c8161249a565b9050919050565b6000602082019050818103600083015261288c816124da565b9050919050565b600060208201905081810360008301526128ac81612540565b9050919050565b600060208201905081810360008301526128cc816125a6565b9050919050565b600060208201905081810360008301526128ec816125e6565b9050919050565b6000606082019050612908600083018461268e565b92915050565b600060208201905061292360008301846126df565b92915050565b600060808201905061293e60008301876126df565b61294b6020830186612181565b6129586040830185612181565b61296560608301846126df565b95945050505050565b600060208201905061298360008301846126ee565b92915050565b6000819050602082019050919050565b600081519050919050565b600081519050919050565b6000602082019050919050565b600082825260208201905092915050565b600082825260208201905092915050565b60006129e982612c71565b91506129f483612c71565b9250827fffffffffffffffffffffffffffffffffffffffffffffffffffffffffffffffff03821115612a2957612a28612d36565b5b828201905092915050565b6000808291508390505b6001851115612a7e57808604811115612a5a57612a59612d36565b5b6001851615612a695780820291505b8081029050612a7785612da5565b9450612a3e565b94509492505050565b6000612a9282612c71565b9150612a9d83612c71565b9250612aca7fffffffffffffffffffffffffffffffffffffffffffffffffffffffffffffffff8484612ad2565b905092915050565b600082612ae25760019050612b9e565b81612af05760009050612b9e565b8160018114612b065760028114612b1057612b3f565b6001915050612b9e565b60ff841115612b2257612b21612d36565b5b8360020a915084821115612b3957612b38612d36565b5b50612b9e565b5060208310610133831016604e8410600b8410161715612b745782820a905083811115612b6f57612b6e612d36565b5b612b9e565b612b818484846001612a34565b92509050818404811115612b9857612b97612d36565b5b81810290505b9392505050565b6000612bb082612c71565b9150612bbb83612c71565b9250817fffffffffffffffffffffffffffffffffffffffffffffffffffffffffffffffff0483118215151615612bf457612bf3612d36565b5b828202905092915050565b6000612c0a82612c71565b9150612c1583612c71565b925082821015612c2857612c27612d36565b5b828203905092915050565b6000612c3e82612c51565b9050919050565b60008115159050919050565b600073ffffffffffffffffffffffffffffffffffffffff82169050919050565b6000819050919050565b600060ff82169050919050565b60005b83811015612ca6578082015181840152602081019050612c8b565b83811115612cb5576000848401525b50505050565b60006002820490506001821680612cd357607f821691505b60208210811415612ce757612ce6612d65565b5b50919050565b6000612cf882612c71565b91507fffffffffffffffffffffffffffffffffffffffffffffffffffffffffffffffff821415612d2b57612d2a612d36565b5b600182019050919050565b7f4e487b7100000000000000000000000000000000000000000000000000000000600052601160045260246000fd5b7f4e487b7100000000000000000000000000000000000000000000000000000000600052602260045260246000fd5b6000601f19601f8301169050919050565b60008160011c9050919050565b612dbb81612c33565b8114612dc657600080fd5b50565b612dd281612c71565b8114612ddd57600080fd5b5056fea2646970667358221220ecc7a57e0af0daf001bc7e5c2bf68a6c523500cc49af439dfc01bb29c0806af364736f6c63430008000033",
  "immutableReferences": {},
  "source": "// SPDX-License-Identifier: MIT\r\npragma solidity 0.8.0;\r\n\r\nimport \"@openzeppelin/contracts/token/ERC20/ERC20.sol\";\r\nimport \"./interfaces/IERC20Holdable.sol\";\r\n\r\ncontract ERC20Holdable is IERC20Holdable, ERC20 {\r\n  address private tokenOwner;\r\n  uint8 public constant DECIMALS = 18;\r\n  uint256 public constant INITIAL_SUPPLY = 10000 * (10 ** uint256(DECIMALS));\r\n\r\n  constructor() ERC20(\"ERC20Holdable\", \"ERC20H\") {\r\n    tokenOwner = msg.sender;\r\n    _mint(tokenOwner, 10000 * (10 ** decimals()));\r\n  }\r\n\r\n  event HoldCreated(\r\n      address sender,\r\n      address recipient,\r\n      uint256 amount\r\n  );\r\n\r\n  event HoldExecuted(\r\n    uint256 holdId,\r\n    address sender,\r\n    address recipient,\r\n    uint256 amount\r\n  );\r\n\r\n  event HoldRemoved(\r\n    uint256 holdId,\r\n    address sender,\r\n    address recipient,\r\n    uint256 amount\r\n  );\r\n\r\n  mapping(address => mapping(address => uint256)) private _allowances;\r\n  mapping(address => uint256) private _balances;\r\n  mapping(uint256 => Hold) public holds;\r\n  mapping(address => uint256) public heldBalance;\r\n  uint256[] public holdIds;\r\n\r\n  function hold(\r\n    uint256 holdId,\r\n    address recipient,\r\n    uint256 amount\r\n  ) public override returns (uint256)\r\n  {\r\n      _hold(_msgSender(), recipient, amount, holdId);\r\n\r\n      emit HoldCreated(_msgSender(), recipient, amount);\r\n      return holdId;\r\n  }\r\n\r\n  function holdFrom(\r\n    uint256 holdId,\r\n    address recipient,\r\n    uint256 amount\r\n  ) public override returns (uint256)\r\n  {\r\n      _hold(_msgSender(), recipient, amount, holdId);\r\n\r\n      uint256 currentAllowance = _allowances[_msgSender()][_msgSender()];\r\n      require(currentAllowance >= amount, \"ERC20: transfer amount exceeds allowance\");\r\n      unchecked {\r\n          _approve(_msgSender(), _msgSender(), currentAllowance - amount);\r\n      }\r\n\r\n      emit HoldCreated(_msgSender(), recipient, amount);\r\n\r\n      return holdId;\r\n  }\r\n\r\n  function executeHold(\r\n    uint256 holdId\r\n  ) public override returns (bool)\r\n  {\r\n      Hold storage executableHold = holds[holdId];\r\n      require(_msgSender() == tokenOwner || executableHold.sender == _msgSender(), 'Only contract owner or hold creator can execute the hold.' );\r\n      require(executableHold.amount > 0, \"Hold does not exist\");\r\n      _transfer(tokenOwner, executableHold.recipient, executableHold.amount);\r\n      heldBalance[executableHold.sender] -= executableHold.amount;\r\n      _deleteHold(holdId);\r\n\r\n      emit HoldExecuted(holdId, executableHold.sender, executableHold.recipient, executableHold.amount);\r\n      return true;\r\n  }\r\n\r\n  function cancelHold(\r\n    uint256 holdId\r\n  ) public override returns (bool)\r\n  {\r\n      Hold storage removableHold = holds[holdId];\r\n      require(_msgSender() == tokenOwner, 'Only contract owner can revert the hold.' );\r\n      require(removableHold.amount > 0, \"Hold does not exist\");\r\n      _transfer(tokenOwner, removableHold.sender, removableHold.amount);\r\n\r\n      heldBalance[removableHold.sender] -= removableHold.amount;\r\n\r\n      emit HoldRemoved(holdId, removableHold.sender, removableHold.recipient, removableHold.amount);\r\n      _deleteHold(holdId);\r\n\r\n      return true;\r\n  }\r\n\r\n  function getUserHolds(\r\n    address userAddress\r\n  )  public view override returns (Hold[] memory)\r\n  {\r\n    uint countUserHolds = 0;\r\n    for (uint i=0; i <holdIds.length; i = i+1) {\r\n      if( holds[holdIds[i]].sender == userAddress ){\r\n        countUserHolds++;\r\n      }\r\n    }\r\n\r\n    Hold[] memory userHolds = new Hold[](countUserHolds);\r\n    uint count = 0;\r\n    for (uint j=0; j <holdIds.length; j = j+1) {\r\n      if( holds[holdIds[j]].sender == userAddress ){\r\n        userHolds[count] = holds[holdIds[j]];\r\n        count++;\r\n      }\r\n    }\r\n\r\n    return userHolds;\r\n  }\r\n\r\n  function getHolds(\r\n  )  public view override returns (Hold[] memory)\r\n  {\r\n\r\n    Hold[] memory allHolds = new Hold[](holdIds.length);\r\n    for (uint j=0; j <holdIds.length; j = j+1) {\r\n        allHolds[j] = holds[holdIds[j]];\r\n    }\r\n\r\n    return allHolds;\r\n  }\r\n\r\n  function getHold(\r\n    uint256 holdId\r\n  )  public view override returns (Hold memory)\r\n  {\r\n    Hold memory holdRequested = holds[holdId];\r\n\r\n    return holdRequested;\r\n  }\r\n\r\n  function _hold(\r\n      address sender,\r\n      address recipient,\r\n      uint256 amount,\r\n      uint256 holdId\r\n  ) internal virtual {\r\n\r\n      require(holds[holdId].amount <= 0, \"Hold id must be unique\");\r\n\r\n      _transfer(sender, tokenOwner, amount);\r\n\r\n      Hold storage newHold = holds[holdId];\r\n\r\n      newHold.sender = sender;\r\n      newHold.recipient = recipient;\r\n      newHold.amount = amount;\r\n      holdIds.push(holdId);\r\n\r\n      heldBalance[sender]+= amount;\r\n  }\r\n\r\n  function _deleteHold(\r\n    uint256 holdId\r\n  ) internal virtual {\r\n    delete holds[holdId];\r\n    uint i = 0;\r\n    for (i; i <holdIds.length; i = i+1) {  //for loop example\r\n       if( holdIds[i] == holdId){\r\n         delete holdIds[i];\r\n       }\r\n    }\r\n  }\r\n}\r\n",
  "sourcePath": "C:\\Users\\pablo\\Code\\ERC20-Hold\\contracts\\ERC20Holdable.sol",
  "compiler": {
    "name": "solc",
    "version": "0.8.0+commit.c7dfd78e.Emscripten.clang"
  },
  "schemaVersion": "3.4.3",
  "updatedAt": "2021-11-22T17:43:12.539Z",
  "networkType": "ethereum",
  "devdoc": {
    "kind": "dev",
    "methods": {
      "allowance(address,address)": {
        "details": "See {IERC20-allowance}."
      },
      "approve(address,uint256)": {
        "details": "See {IERC20-approve}. Requirements: - `spender` cannot be the zero address."
      },
      "balanceOf(address)": {
        "details": "See {IERC20-balanceOf}."
      },
      "decimals()": {
        "details": "Returns the number of decimals used to get its user representation. For example, if `decimals` equals `2`, a balance of `505` tokens should be displayed to a user as `5.05` (`505 / 10 ** 2`). Tokens usually opt for a value of 18, imitating the relationship between Ether and Wei. This is the value {ERC20} uses, unless this function is overridden; NOTE: This information is only used for _display_ purposes: it in no way affects any of the arithmetic of the contract, including {IERC20-balanceOf} and {IERC20-transfer}."
      },
      "decreaseAllowance(address,uint256)": {
        "details": "Atomically decreases the allowance granted to `spender` by the caller. This is an alternative to {approve} that can be used as a mitigation for problems described in {IERC20-approve}. Emits an {Approval} event indicating the updated allowance. Requirements: - `spender` cannot be the zero address. - `spender` must have allowance for the caller of at least `subtractedValue`."
      },
      "hold(uint256,address,uint256)": {
        "details": "Moves `amount` tokens from the caller's account to account[0] (the token owners account) until the hold is executed or returned. Returns a boolean value indicating whether the operation succeeded. Emits a {Transfer} event."
      },
      "holdFrom(uint256,address,uint256)": {
        "details": "Moves `amount` tokens from the caller's account to account[0] (the token owners account) using the allowance mechanism until the hold is executed or returned. `amount` is then deducted from the caller's allowance. Returns a boolean value indicating whether the operation succeeded. Emits a {Transfer} event."
      },
      "increaseAllowance(address,uint256)": {
        "details": "Atomically increases the allowance granted to `spender` by the caller. This is an alternative to {approve} that can be used as a mitigation for problems described in {IERC20-approve}. Emits an {Approval} event indicating the updated allowance. Requirements: - `spender` cannot be the zero address."
      },
      "name()": {
        "details": "Returns the name of the token."
      },
      "symbol()": {
        "details": "Returns the symbol of the token, usually a shorter version of the name."
      },
      "totalSupply()": {
        "details": "See {IERC20-totalSupply}."
      },
      "transfer(address,uint256)": {
        "details": "See {IERC20-transfer}. Requirements: - `recipient` cannot be the zero address. - the caller must have a balance of at least `amount`."
      },
      "transferFrom(address,address,uint256)": {
        "details": "See {IERC20-transferFrom}. Emits an {Approval} event indicating the updated allowance. This is not required by the EIP. See the note at the beginning of {ERC20}. Requirements: - `sender` and `recipient` cannot be the zero address. - `sender` must have a balance of at least `amount`. - the caller must have allowance for ``sender``'s tokens of at least `amount`."
      }
    },
    "version": 1
  },
  "userdoc": {
    "kind": "user",
    "methods": {
      "cancelHold(uint256)": {
        "notice": "Returns the money on hold and all the balance is available for transfers.  This function can only be called by the owner of the contract.  Emits a {Transfer} event."
      },
      "executeHold(uint256)": {
        "notice": "When the method is executed the money is transferred from the on hold balance to the wallet  where the hold was instructed.  It can only be executed by the same address that created the hold.  Emits a {Transfer} event."
      },
      "getHold(uint256)": {
        "notice": "Returns the hold data  This function can only be called by the owner of the contract."
      },
      "getHolds()": {
        "notice": "Returns all the holds  This function can only be called by the owner of the contract."
      },
      "getUserHolds(address)": {
        "notice": "Returns all the address holds  This function can only be called by the owner of the contract or the address that created the holds."
      }
    },
    "version": 1
  }
}